:020000040040BA
:10000000E8244020B9054000B5054000B505400092
:10001000B5054000B5054000B505400000000000F2
:10002000000000000000000000000000B5054000D6
:10003000B505400000000000B5054000B5054000D2
:10004000B5054000B5054000B5054000B5054000C8
:10005000B5054000B5054000B5054000B5054000B8
:10006000B505400000000000DD034000F103400042
:1000700005044000B5054000B5054000B505400049
:10008000190440002D044000B5054000B5054000AE
:10009000B5054000B5054000B5054000B505400078
:1000A000B5054000B5054000B5054000B505400068
:1000B000B5054000B5054000B5054000B505400058
:1000C000B5054000B5054000B5054000B505400048
:1000D00000000000B505400000000000B50540002C
:1000E000B5054000B5054000B5054000B505400028
:1000F000B5054000B5054000B5054000B505400018
:10010000B5054000B5054000B5054000B505400007
:10011000B5054000000000000000000000000000E5
:10012000B5054000B5054000B5054000B5054000E7
:10013000B505400000000000B5054000B5054000D1
:1001400010B5054C237833B9044B13B10448AFF311
:1001500000800123237010BD340440200000000003
:10016000240A40000C4B43B10C480D4910B5AFF3C5
:1001700000800C48036823B910BD0A48036833B9EE
:100180007047094B002BF7D0BDE810401847064BCD
:10019000002BF5D0184700BF00000000240A4000E3
:1001A00038044020240A40000000000010B5104828
:1001B000104B98473E2100200F4B98470F4CA0470B
:1001C0000028FCD00E4B98470E4A0F4B9A620F4CFA
:1001D000A0470028FCD002200D4B984700200D4B73
:1001E00098470D4B98470248024B984710BD00BFF7
:1001F00000A3E1118D074000DD04400031054000FF
:1002000041054000013F182000060E405105400006
:10021000410440007904400081064000F8B54FF4E5
:100220000042484B5A60BFF34F8FBFF36F8F464B6E
:100230000022C3F850225A6942F400325A61BFF3D7
:100240004F8FBFF36F8FD3F88070C7F34E3607F030
:1002500007000430C7F3C907B7FA87FE0EF01F0E78
:10026000BFF34F8F4FF0FF3404FA00FC06FA00F0A2
:1002700004FA0EF407FA0EFE1D463A46734640EAAB
:100280000301C5F86012013A2344B2F1FF3FF6D1F1
:10029000013E6044B6F1FF3FEFD1BFF34F8F2A4BD1
:1002A0005A6942F480325A61BFF34F8FBFF36F8FA8
:1002B000264A27495160A1F580715160BFF34F8FE5
:1002C000BFF36F8FD3F8902222F00102C3F890227F
:1002D000D3F8942222F00102C3F89422BFF34F8F87
:1002E000BFF36F8F0A201B4CA0470B20A0470C20A8
:1002F000A0471020A0471120A047174B4FF4807251
:100300001A61C3F8A0201A63A3F580634FF400625A
:100310005A61C3F8A0205A66C3F890205A651A6241
:10032000C3F88420196F21F400611967596F21F413
:1003300000615967C3F8C020C3F8D420C3F8B020C7
:10034000F8BD00BF50180E4000ED00E0000C0E405C
:100350000C08005A6105400000120E4010B4019CC8
:1003600041644CB901664BB101654AB94163016111
:1003700001605DF8044B70474166F4E74165F4E7BE
:100380000163F4E7C06C7047806C70472DE9F04161
:10039000044688460E4B9847054620460D4B984725
:1003A000054013D00C4C04F1600603E0B4420DD0BC
:1003B00010345DB120684045F8D161682942F5D01C
:1003C000E3689847636825EA0305EFE7BDE8F08135
:1003D00085034000890340005004402008B50A21ED
:1003E0000148024B984708BD000E0E408D034000A7
:1003F00008B50B210148024B984708BD00100E407C
:100400008D03400008B50C210148024B984708BDF8
:1004100000120E408D03400008B510210148024B28
:10042000984708BD00140E408D03400008B5112107
:100430000148024B984708BD00160E408D0340004E
:10044000032811D0042812D002280CBF4FF4807169
:100450000021084A136B23F440730B431363936E1C
:1004600013F0080FFBD070474FF44071F1E74FF4E1
:100470000071EEE700060E40174A136B23F070037D
:1004800018431063936E13F0080F0AD14FF4805392
:1004900011498A6E12F0080F03D1013BF9D10120F6
:1004A00070470D4A136B23F0030343F002031363F9
:1004B000936E13F0080F0AD14FF4805306498A6EE9
:1004C00012F0080F05D1013BF9D10120704700203F
:1004D00070470020704700BF00060E40A0B90E48CC
:1004E000036A090289B20D4A1A400D4B134319439E
:1004F00001620246936E13F0010FFBD0064A116AA7
:10050000084B0B431362704703490B6A064A1A40B3
:10051000064B13430B62704700060E40FCFFC8FFFA
:100520000100370000003701FCFFC8FE0200370160
:10053000024B986E00F48030704700BF00060E40FA
:100540004FF00052014B9A62704700BF00060E4008
:10055000024B986E00F00200704700BF00060E408C
:100560003F281ED81F280CD8114B9A6901238340BD
:10057000934318D0012303FA00F00D4B18610020BB
:10058000704720380A4BD3F8082101238340934356
:100590000BD0012303FA00F0054BC3F80001002043
:1005A000704701207047002070470020704700BF4F
:1005B00000060E40FEE7000000B583B0254B264A3A
:1005C0009A4210D0254B234A9A420CD2013B9B1AE7
:1005D00023F00303043313441F4951F8040B42F87A
:1005E000040B9A42F9D11E4B1E4A9A420AD2013B91
:1005F0009B1A23F0030304331344002142F8041B25
:100600009342FBD1184A194B23F07F039360EFF319
:100610001083B3FA83F35B09019372B6BFF35F8F64
:100620000022134B1A700199124A136843F47003A5
:100630001360BFF34F8FBFF36F8F29B101220C4BB3
:100640001A70BFF35F8F62B60B4B98470B4B9847FE
:10065000FEE700BF00004020240A40003404402090
:10066000E40440203404402000ED00E0000040009D
:100670000000402088ED00E08D0840004508400063
:100680003B4B1B6B03F00303012B1DD083B1022BEB
:1006900036D0374B1B6B03F07003702B5FD0344B9D
:1006A0001A6B3449C2F302120B68D3400B607047D7
:1006B000314B5B6913F0800F14BF4FF400424FF4CD
:1006C000FA422C4B1A60E4E7294B1B6A13F0807F37
:1006D00003D02A4A274B1A60DBE7294A254B1A60C8
:1006E000234B1B6A03F07003102B05D0202BD0D1B5
:1006F000224A204B1A60CCE7224A1E4B1A60C8E7F8
:100700001B4B1B6A13F0807F16D01C4A194B1A60D2
:10071000174B1B6B03F00303022BBAD1144A916AE7
:10072000926A1448C1F30A41036801FB0333D2B251
:10073000B3FBF2F30360ACE7114A0E4B1A600C4BAB
:100740001B6A03F07003102B05D0202BE0D10B4A5D
:10075000084B1A60DCE70B4A064B1A60D8E7054ADB
:1007600013680949A1FB03135B081360704700BFBE
:1007700000060E400400402010180E40001BB70079
:1007800000093D0000127A00ABAAAAAA164B9842B3
:1007900013D9164B984215D9154B984216D9154BBB
:1007A000984217D9144B984218D9144B984294BFC9
:1007B000134A144A144B1A6070474FF08062124B70
:1007C0001A607047114A104B1A607047104A0E4B5E
:1007D0001A6070470F4A0C4B1A6070474FF00422A2
:1007E000094B1A60704700BFBFF35E017FE7BD028F
:1007F0003FDB1C04FFCE7B05BFC2DA067FB639089B
:100800000005000400060004000C0E400001000476
:10081000000200040003000470B582B004461546CF
:100820001E460846054B984700230093324629464A
:100830002046034CA04702B070BD00BF61054000D8
:100840005D03400008B50B4B98470B4B98470023BE
:1008500001220A2109480A4CA04700234FF0804298
:100860000C210848A047002304220B210648A0477A
:10087000FEE700BF1D024000AD014000000E0E402B
:100880001908400000120E4000100E4070B50F4EC7
:100890000F4D761BB61018BF002405D0013455F853
:1008A000043B9847A642F9D10A4E0B4D761B00F047
:1008B000A7F8B61018BF002406D0013455F8043B41
:1008C0009847A642F9D170BD70BD00BF0C0A400028
:1008D0000C0A4000140A40000C0A4000024B13B1FD
:1008E000024800F005B8704700000000FD08400015
:1008F000002301461A46184600F01EB838B50A4CC7
:100900000A4D641BA4100AD004F18043013B05EB9F
:100910008305013C55F804399847002CF9D1BDE80E
:10092000384000F077B800BF240A4000200A400099
:10093000704700BF704700BF2DE9F8432C4D0646B5
:10094000286898460F469146FFF7F2FF294B1C682E
:10095000D4F84831002B3ED05A681F2A1CDC02F123
:10096000010E76B103EB82010124C1F88890D3F81F
:10097000880194402043022EC3F88801C1F8088101
:1009800023D00232C3F804E0286843F82270FFF74E
:10099000D1FF0020BDE8F883174B0BB34FF4C870AC
:1009A000AFF300800346D8B1D4F84821026000219B
:1009B00041600A46C4F848014FF0010EC0F88811A2
:1009C000C0F88C11002EDCD0CCE7D3F88C110C438E
:1009D000C3F88C41D5E704F5A673C4F84831BBE7EA
:1009E0002868FFF7A7FF4FF0FF30BDE8F88300BF8E
:1009F00030044020FC0940000000000008004020B6
:100A0000F8B500BFF8BC08BC9E467047DD08400042
:100A100065014000F8B500BFF8BC08BC9E467047B1
:040A20004101400050
:100A24000100000000093D0000000000F402402025
:100A34005C034020C40340200000000000000000CC
:100A440000000000000000000000000000000000A2
:100A54000000000000000000000000000000000092
:100A64000000000000000000000000000000000082
:100A74000000000000000000000000000000000072
:100A84000000000000000000000000000000000062
:100A94000000000000000000000000000000000052
:100AA4000000000000000000000000000000000042
:100AB4000000000000000000000000000000000032
:100AC4000000000000000000000000000000000022
:100AD40001000000000000000E33CDAB34126DE6BF
:100AE400ECDE05000B000000000000000000000028
:100AF40000000000000000000000000000000000F2
:100B040000000000000000000000000000000000E1
:100B140000000000000000000000000000000000D1
:100B240000000000000000000000000000000000C1
:040E5400C004402076
:04000005004005B9F9
:00000001FF
