S00D00004F4C4544312E73726563C2
S214400000E82440203D0740003907400039074000BB
S214400010390740003907400039074000000000001B
S214400020000000000000000000000000390740000B
S21440003039074000000000003907400039074000FB
S214400040390740003907400039074000D90A4000C8
S214400050390740003907400039074000390740005B
S214400060390740000000000061054000750540006B
S21440007089054000390740003907400039074000ED
S2144000809D054000B1054000390740003907400053
S214400090390740003907400039074000390740001B
S2144000A0AD0A400039074000390740003907400094
S2144000B039074000390740003907400039074000FB
S2144000C039074000390740003907400039074000EB
S2144000D000000000390740000000000039074000DB
S2144000E039074000390740003907400039074000CB
S2144000F039074000390740003907400039074000BB
S21440010039074000390740003907400039074000AA
S214400110390740000000000000000000000000001A
S214400120390740003907400039074000390740008A
S21440013039074000000000003907400039074000FA
S21440014010B5054C237833B9044B13B10448AFF3CC
S21440015000800123237010BD3404402000000000BE
S214400160E40D40000C4B43B10C480D4910B5AFF3BD
S21440017000800C48036823B910BD0A48036833B9A9
S2144001807047094B002BF7D0BDE810401847064B88
S214400190002BF5D0184700BF00000000E40D4000DB
S2144001A038044020E40D400000000000034B1B686C
S2144001B043F48023194301600020704750044020D8
S2144001C041B9094A136823F08073136002681343E9
S2144001D003607047044A136843F0807313600268F4
S2144001E013430360704700BF500440200268034B2F
S2144001F01B68194311430160704700BF50044020FC
S214400200036823EA0101024B1B68194301607047EB
S21440021050044020826883689A4203D0826883688C
S2144002209342FBD118467047C068704770B5064683
S2144002300D46046804F480344FF4803109480A4B74
S21440024098472DB94FF0FF33736024B9002070BD36
S214400250013D7560F9E74FF480310248034B9847FB
S214400260F4E700BF30180E4001024000ED014000A8
S21440027010B489014318022444504FF0FF3199626C
S214400280196A5A605DF8044B70478901052343504C
S214400290704700EB8111CA61704700EB81114A62DA
S2144002A0704700EB8111086A7047F0B486B00224AC
S2144002B001940824029420240394802404940A9CE5
S2144002C0E40B0594B0EB510F14D84C0CA04217D257
S2144002D0012501AF57F82540B1FBF4F4260C8442C3
S2144002E00AD386420DD90135052DF3D1002006B03C
S2144002F0F0BC70470020FAE70020F8E70120F6E758
S21440030000252AB106A901EB850151F8141C11609D
S214400310002BF3D01D600120E9E7000010B510481F
S214400320104B98473E2100200F4B98470F4CA04754
S2144003300028FCD00E4B98470E4A0F4B9A620F4C43
S214400340A0470028FCD002200D4B984700200D4BBC
S21440035098470D4B98470248024B984710BD00BF40
S21440036000A3E1111109400061064000B5064000B7
S214400370C5064000013F182000060E40D506400046
S214400380C5054000FD05400005084000F8B54FF49F
S2144003900042484B5A60BFF34F8FBFF36F8F464BB8
S2144003A00022C3F850225A6942F400325A61BFF321
S2144003B04F8FBFF36F8FD3F88070C7F34E3607F07A
S2144003C007000430C7F3C907B7FA87FE0EF01F0EC2
S2144003D0BFF34F8F4FF0FF3404FA00FC06FA00F0EC
S2144003E004FA0EF407FA0EFE1D463A46734640EAF5
S2144003F00301C5F86012013A2344B2F1FF3FF6D13B
S214400400013E6044B6F1FF3FEFD1BFF34F8F2A4B1A
S2144004105A6942F480325A61BFF34F8FBFF36F8FF1
S214400420264A27495160A1F580715160BFF34F8F2E
S214400430BFF36F8FD3F8902222F00102C3F89022C8
S214400440D3F8942222F00102C3F89422BFF34F8FD0
S214400450BFF36F8F0A201B4CA0470B20A0470C20F1
S214400460A0471020A0471120A047174B4FF480729A
S2144004701A61C3F8A0201A63A3F580634FF40062A4
S2144004805A61C3F8A0205A66C3F890205A651A628B
S214400490C3F88420196F21F400611967596F21F45D
S2144004A000615967C3F8C020C3F8D420C3F8B02011
S2144004B0F8BD00BF50180E4000ED00E0000C0E40A6
S2144004C00C08005AE506400000120E4001637047D3
S2144004D04163704710B4019C41644CB901664BB10E
S2144004E001654AB94163016101605DF8044B70479C
S2144004F04166F4E74165F4E70163F4E7836B0B423A
S21440050014BF012000207047C06C7047806C704755
S2144005102DE9F041044688460E4B9847054620464E
S2144005200D4B9847054013D00C4C04F1600603E091
S214400530B4420DD010345DB120684045F8D16168B2
S2144005402942F5D0E3689847636825EA0305EFE754
S214400550BDE8F081090540000D05400054044020E8
S21440056008B50A210148024B984708BD000E0E40C8
S2144005701105400008B50B210148024B984708BDBD
S21440058000100E401105400008B50C210148024BF2
S214400590984708BD00120E401105400008B51021CE
S2144005A00148024B984708BD00140E401105400014
S2144005B008B511210148024B984708BD00160E4069
S2144005C011054000032811D0042812D002280CBF81
S2144005D04FF480710021084A136B23F440730B4399
S2144005E01363936E13F0080FFBD070474FF44071BF
S2144005F0F1E74FF40071EEE700060E40174A136B22
S21440060023F0700318431063936E13F0080F0AD15B
S2144006104FF4805311498A6E12F0080F03D1013B04
S214400620F9D1012070470D4A136B23F0030343F0C2
S21440063002031363936E13F0080F0AD14FF48053EE
S21440064006498A6E12F0080F05D1013BF9D1012008
S2144006507047002070470020704700BF00060E40DD
S214400660A0B90E48036A090289B20D4A1A400D4BDA
S2144006701343194301620246936E13F0010FFBD0F9
S214400680064A116A084B0B431362704703490B6ACC
S214400690064A1A40064B13430B62704700060E404C
S2144006A0FCFFC8FF0100370000003701FCFFC8FE12
S2144006B002003701024B986E00F48030704700BF4E
S2144006C000060E404FF00052014B9A62704700BF42
S2144006D000060E40024B986E00F00200704700BFC6
S2144006E000060E403F281ED81F280CD8114B9A698A
S2144006F001238340934318D0012303FA00F00D4BA7
S21440070018610020704720380A4BD3F8082101238F
S214400710834093430BD0012303FA00F0054BC3F804
S21440072000010020704701207047002070470020DD
S214400730704700BF00060E40FEE7000000B583B0DD
S214400740254B264A9A4210D0254B234A9A420CD231
S214400750013B9B1A23F00303043313441F4951F80B
S214400760040B42F8040B9A42F9D11E4B1E4A9A4299
S2144007700AD2013B9B1A23F003030433134400219F
S21440078042F8041B9342FBD1184A194B23F07F03CF
S2144007909360EFF31083B3FA83F35B09019372B669
S2144007A0BFF35F8F0022134B1A700199124A1368E9
S2144007B043F470031360BFF34F8FBFF36F8F29B1BD
S2144007C001220C4B1A70BFF35F8F62B60B4B9847F3
S2144007D00B4B9847FEE700BF00004020E40D40006A
S2144007E034044020E80440203404402000ED00E07B
S2144007F0000040000000402088ED00E04D0C400026
S214400800CD0B40003B4B1B6B03F00303012B1DD06D
S21440081083B1022B36D0374B1B6B03F07003702B23
S2144008205FD0344B1A6B3449C2F302120B68D34084
S2144008300B607047314B5B6913F0800F14BF4FF469
S21440084000424FF4FA422C4B1A60E4E7294B1B6AED
S21440085013F0807F03D02A4A274B1A60DBE7294AE9
S214400860254B1A60234B1B6A03F07003102B05D0F0
S214400870202BD0D1224A204B1A60CCE7224A1E4B6E
S2144008801A60C8E71B4B1B6A13F0807F16D01C4AC1
S214400890194B1A60174B1B6B03F00303022BBAD19C
S2144008A0144A916A926A1448C1F30A41036801FBEC
S2144008B00333D2B2B3FBF2F30360ACE7114A0E4BFC
S2144008C01A600C4B1B6A03F07003102B05D0202BCC
S2144008D0E0D10B4A084B1A60DCE70B4A064B1A601D
S2144008E0D8E7054A13680949A1FB03135B08136060
S2144008F0704700BF00060E400400402010180E400F
S214400900001BB70000093D0000127A00ABAAAAAA55
S214400910164B984213D9164B984215D9154B984208
S21440092016D9154B984217D9144B984218D9144BE0
S214400930984294BF134A144A144B1A6070474FF0BB
S2144009408062124B1A607047114A104B1A6070470B
S214400950104A0E4B1A6070470F4A0C4B1A6070478D
S2144009604FF00422094B1A60704700BFBFF35E0188
S2144009707FE7BD023FDB1C04FFCE7B05BFC2DA0625
S2144009807FB639080005000400060004000C0E403F
S2144009900001000400020004000300042DE9F041B9
S2144009A02DED028B82B0B0EE408A80460F46204C3A
S2144009B0002120461F4B98479FED1F7AC7EE087AC6
S2144009C0FDEEE77ACDED017ABDF8041020461B4BCC
S2144009D0984717F4803F16D1194B0822C3F8802059
S2144009E0C3F88021802183F803131A6017F4403F30
S2144009F019D14FF440310E48124B984702B0BDEC27
S214400A00028BBDE8F08120460F4B98470446084EBF
S214400A100D4D3046A8478442FBD004EB08010448FD
S214400A200A4B9847D8E739460148094B9847E5E7C7
S214400A3030180E40C101400000000047AD014000A4
S214400A4000E100E001024000150240002D02400097
S214400A50ED01400070B582B0044615461E46084675
S214400A60054B984700230093324629462046034CC0
S214400A70A04702B070BD00BFE5064000D504400068
S214400A8038B504460D46064B984720B929462046B9
S214400A90044B984738BD29462046034B984738BDF7
S214400AA0FD044000CD044000D104400000B583B0B2
S214400AB001210548054B9847019001210448054B04
S214400AC0984703B05DF804FB00C00040A302400016
S214400AD0000E0E40810A400010B50C480C4B98475B
S214400AE0044610F0010F03D114F0020F08D110BDD8
S214400AF04FF400310020B5EE000A064B9847F3E766
S214400B004FF080410448054B9847F0E730180E40B8
S214400B10290240009D09400000120E40810A400014
S214400B202DE9F04385B006460C46174698460846DB
S214400B301D4B98471D4D009502AB03AA29464046DB
S214400B40DFF88490C847029A42F4804239463046DD
S214400B50174B9847039AB5FBF2F2B2FBF8F23946C8
S214400B603046144B984763B2002B15DB0C9A520163
S214400B70D2B21149CA545B0904F01F04012202FA9A
S214400B8004F40E4A42F823401022394630460C4BB5
S214400B90984705B0BDE8F08304F00F000C9A510169
S214400BA0C9B2084A1154E6E7E506400000A3E11141
S214400BB0710240009302400000E400E000E100E0E3
S214400BC09B02400014ED00E0AB02400000B583B04D
S214400BD0144B9847144B984701231A460A2113484A
S214400BE0134CA04701234FF080420C211148A047E8
S214400BF0012304220B211048A047104C04230093E5
S214400C000122182120460E4DA847012120460D4BB3
S214400C1098474FF400310020B5EE000A0A4B98473B
S214400C20FEE700BF8D0340001D034000000E0E404F
S214400C30550A400000120E4000100E4000C0004012
S214400C40210B40008B0240009D09400070B50F4EBE
S214400C500F4D761BB61018BF002405D0013455F84A
S214400C60043B9847A642F9D10A4E0B4D761B00F03E
S214400C70A7F8B61018BF002406D0013455F8043B38
S214400C809847A642F9D170BD70BD00BFCC0D40005C
S214400C90CC0D4000D40D4000CC0D4000024B13B1AB
S214400CA0024800F005B8704700000000BD0C400048
S214400CB0002301461A46184600F01EB838B50A4CBE
S214400CC00A4D641BA4100AD004F18043013B05EB97
S214400CD08305013C55F804399847002CF9D1BDE806
S214400CE0384000F077B800BFE40D4000E00D40000B
S214400CF0704700BF704700BF2DE9F8432C4D0646AD
S214400D00286898460F469146FFF7F2FF294B1C6825
S214400D10D4F84831002B3ED05A681F2A1CDC02F11A
S214400D20010E76B103EB82010124C1F88890D3F816
S214400D30880194402043022EC3F88801C1F80881F8
S214400D4023D00232C3F804E0286843F82270FFF745
S214400D50D1FF0020BDE8F883174B0BB34FF4C870A3
S214400D60AFF300800346D8B1D4F848210260002192
S214400D7041600A46C4F848014FF0010EC0F8881199
S214400D80C0F88C11002EDCD0CCE7D3F88C110C4385
S214400D90C3F88C41D5E704F5A673C4F84831BBE7E1
S214400DA02868FFF7A7FF4FF0FF30BDE8F88300BF85
S214400DB030044020BC0D40000000000008004020E9
S214400DC0F8B500BFF8BC08BC9E4670479D0C400076
S214400DD065014000F8B500BFF8BC08BC9E467047A9
S208400DE04101400048
S214400DE40100000000093D0000000000F40240201D
S214400DF45C034020C40340200000000000000000C4
S214400E040000000000000000000000000000000099
S214400E140000000000000000000000000000000089
S214400E240000000000000000000000000000000079
S214400E340000000000000000000000000000000069
S214400E440000000000000000000000000000000059
S214400E540000000000000000000000000000000049
S214400E640000000000000000000000000000000039
S214400E740000000000000000000000000000000029
S214400E840000000000000000000000000000000019
S214400E9401000000000000000E33CDAB34126DE6B6
S214400EA4ECDE05000B00000000000000000000001F
S214400EB400000000000000000000000000000000E9
S214400EC400000000000000000000000000000000D9
S214400ED400000000000000000000000000000000C9
S214400EE400000000000000000000000000000000B9
S208401214C404402069
S80440073D77
