S00D00004F4C4544312E73726563C2
S214400000F8244020610B40005D0B40005D0B400033
S2144000105D0B40005D0B40005D0B400000000000A3
S2144000200000000000000000000000005D0B4000E3
S2144000305D0B4000000000005D0B40005D0B400083
S2144000405D0B40005D0B4000850E4000D50F400024
S2144000505D0B40005D0B40005D0B40005D0B4000BB
S2144000605D0B4000000000008509400099094000F3
S214400070AD0940005D0B40005D0B40005D0B40004D
S214400080C1094000D50940005D0B40005D0B4000B3
S2144000905D0B40005D0B40005D0B40005D0B40007B
S2144000A0A90F40005D0B40005D0B40005D0B40001B
S2144000B05D0B40005D0B40005D0B40005D0B40005B
S2144000C05D0B40005D0B40005D0B40005D0B40004B
S2144000D0000000005D0B4000000000005D0B40008B
S2144000E05D0B40005D0B40005D0B40005D0B40002B
S2144000F05D0B40005D0B40005D0B40005D0B40001B
S2144001005D0B40005D0B40005D0B40005D0B40000A
S2144001105D0B4000000000000000000000000000F2
S2144001205D0B40005D0B40005D0B40005D0B4000EA
S2144001305D0B4000000000005D0B40005D0B400082
S21440014010B5054C237833B9044B13B10448AFF3CC
S21440015000800123237010BD3C04402000000000B6
S214400160B41440000C4B43B10C480D4910B5AFF3E6
S21440017000800C48036823B910BD0A48036833B9A9
S2144001807047094B002BF7D0BDE810401847064B88
S214400190002BF5D0184700BF00000000B414400004
S2144001A040044020B41440000000000021B94368D9
S2144001B023F0010343607047436843F00103436004
S2144001C070470162704730B485688468A54203D0A2
S2144001D085688468AC42FBD161B1C4F3015000EB42
S2144001E08005C4F3034000EB450014F4800F18BFAD
S2144001F00C30086042B1C4F3023101EB8101C4F314
S214400200032000EB4101116043B1C4F3021202EB3C
S214400210820204F00F0404EB42041C6030BC7047BA
S214400220F0B4446814F0010F05D00C2903D90C39FA
S2144002304FF4800700E000271C4CA4FB0356F6084A
S21440024006EB8605A3EB450343EA0613A4FB0265CB
S214400250ED0843EA053305EB8505A2EB450543EA81
S21440026005233B43A4FB0142D20843EA025302EB78
S2144002708202A1EB420143EA0141836913F0040F75
S214400280FBD0036843F001030360836913F0010F5A
S214400290FBD00123C3618160036823F00103036040
S2144002A0C06A00F00100F0BC704700BFCDCCCCCC9B
S2144002B0F0B5059C069D079F0E46B1B1416811F00A
S2144002C0010F05D00C2A03D90C3A4FF4800600E003
S2144002D000261949A1FB02E1C90801EB810EA2EBF9
S2144002E04E02120442EA015216435BB1124BA3FB84
S2144002F00423DB0803EB8302A4EB4204240244EA13
S2144003000334264355B10C4BA3FB0723DB0803EB12
S2144003108302A7EB420747EA03131E430269074BD3
S2144003201340036106610269054B13430361C06ACB
S21440033000F00400F0BD00BFCDCCCCCC7F7F7FFF6B
S21440034080808000F0B4049EC568C468A54203D08F
S214400350C568C468AC42FBD199B1C4F3033000EB26
S2144003608000C4F3032707EB4007C4F3021000EBFA
S214400370800504F00F0000EB4500642505FB007087
S214400380086042B1C4F3005081000844C4F30341FE
S21440039001EB4001116043B1C4F3017202EB8202EB
S2144003A0C4F3036101EB42021A6016B1C4F342542F
S2144003B03460F0BC7047000070B42A4DA5FB03467D
S2144003C0F608039C640544EA067406EB8606A3EB2F
S2144003D0460344EA0363A5FB0264E40843EA045385
S2144003E004EB8404A2EB440243EA02421E4BA3FB06
S2144003F001439B0942EA03121C4BA3FB01435B09E2
S214400400A5FB0364E40804EB8404A3EB44031A430B
S214400410A5FB0143DB0803EB8304A1EB440142EA5E
S2144004200122A5FB0315ED0805EB8505A3EB450565
S21440043042EA0532836913F0040FFBD0036843F0A9
S21440044002030360836913F0010FFBD00123C361ED
S214400450C260036823F002030360C06A00F0020033
S21440046070BC7047CDCCCCCCD34D62101F85EB51C1
S21440047030B4029D0C4651B1124CA4FB0214E40861
S21440048004EB8401A2EB4102120442EA04545BB13D
S2144004900C4AA2FB0532D20802EB8203A5EB4303CB
S2144004A01B0643EA02731C434269074B13404361F1
S2144004B044614269054B13434361C06A00F008003B
S2144004C030BC7047CDCCCCCCFFFF7F7F0000808017
S2144004D080697047C1617047034B1B6843F48023B3
S2144004E019430160002070475804402041B9094A2A
S2144004F0136823F0807313600268134303607047E9
S214400500044A136843F08073136002681343036021
S214400510704700BF580440200268034B1B681943CD
S21440052011430160704700BF58044020036823EA27
S2144005300101024B1B681943016070475804402074
S214400540826883689A4203D0826883689342FBD16C
S21440055018467047C068704770B506460D46046832
S21440056004F480344FF4803109480A4B98472DB93B
S2144005704FF0FF33736024B9002070BD013D7560B5
S214400580F9E74FF480310248034B9847F4E700BF41
S21440059030180E402D0540001905400010B4890162
S2144005A04318022444504FF0FF319962196A5A604A
S2144005B05DF8044B7047890105234350704700EBB4
S2144005C08111CA61704700EB81114A62704700EBA7
S2144005D08111086A7047F0B486B00224019408245A
S2144005E0029420240394802404940A9CE40B0594EB
S2144005F0B0EB510F14D84C0CA04217D2012501AFD6
S21440060057F82540B1FBF4F4260C84420AD38642C0
S2144006100DD90135052DF3D1002006B0F0BC70474A
S2144006200020FAE70020F8E70120F6E700252AB187
S21440063006A901EB850151F8141C1160002BF3D07C
S2144006401D600120E9E7000010B51048104B9847A0
S2144006503E2100200F4B98470F4CA0470028FCD067
S2144006600E4B98470E4A0F4B9A620F4CA0470028F5
S214400670FCD002200D4B984700200D4B98470D4B61
S21440068098470248024B984710BD00BF00A3E111AF
S214400690350D4000850A4000D90A4000E90A40006E
S2144006A0013F182000060E40F90A4000E9094000C4
S2144006B0210A4000290C4000F8B54FF40042484B50
S2144006C05A60BFF34F8FBFF36F8F464B0022C3F87D
S2144006D050225A6942F400325A61BFF34F8FBFF33B
S2144006E06F8FD3F88070C7F34E3607F0070004309C
S2144006F0C7F3C907B7FA87FE0EF01F0EBFF34F8F3A
S2144007004FF0FF3404FA00FC06FA00F004FA0EF448
S21440071007FA0EFE1D463A46734640EA0301C5F800
S2144007206012013A2344B2F1FF3FF6D1013E6044E5
S214400730B6F1FF3FEFD1BFF34F8F2A4B5A6942F4D1
S21440074080325A61BFF34F8FBFF36F8F264A2749D7
S2144007505160A1F580715160BFF34F8FBFF36F8F2B
S214400760D3F8902222F00102C3F89022D3F89422C4
S21440077022F00102C3F89422BFF34F8FBFF36F8F6E
S2144007800A201B4CA0470B20A0470C20A047102057
S214400790A0471120A047174B4FF480721A61C3F848
S2144007A0A0201A63A3F580634FF400625A61C3F831
S2144007B0A0205A66C3F890205A651A62C3F884206F
S2144007C0196F21F400611967596F21F40061596768
S2144007D0C3F8C020C3F8D420C3F8B020F8BD00BF8B
S2144007E050180E4000ED00E0000C0E400C08005A79
S2144007F0090B400000120E40C0F8841053004FF41E
S2144008000042B2FBF3F2013AC2F30D02C0F88C206C
S21440081070470163704741637047416412F0010FAF
S2144008200DD1016612F00A0F0BD0016212F0020FD2
S21440083009D112F0080F08D0C0F8841005E04166D0
S214400840F0E74162F2E7C0F880104161016070470E
S21440085010B4019C41644CB901664BB101654AB97C
S2144008604163016101605DF8044B70474166F4E7FF
S2144008704165F4E70163F4E7836B0B4214BF012044
S2144008800020704712F0100F12D0C0F8B01012F0CF
S214400890200F07D0C0F8D41012F0400F05D0C0F893
S2144008A0C0107047C0F8D010F6E7C0F8C4107047C4
S2144008B0C0F8B410704701647047C06C7047806CD5
S2144008C0704700002DE9F041044688460E4B984795
S2144008D0054620460D4B9847054013D00C4C04F176
S2144008E0600603E0B4420DD010345DB12068404548
S2144008F0F8D161682942F5D0E3689847636825EAED
S2144009000305EFE7BDE8F081BB084000BF084000A4
S2144009105C044020F8B5184C2668062E2AD84FF0BE
S214400920000C6446154F04E00134E4B2A446A642E7
S21440093009D3A64625017D598D42F5D107EB04150E
S2144009406D689542F0D10D4D4FEA0E1E05EB0E0434
S21440095045F80E106260A3600699E1600136664570
S21440096005D011461A46064B98470020F8BD024966
S2144009700E60F6E70120F8BDCC0440205C04402021
S2144009808508400008B50A210148024B984708BD33
S214400990000E0E40C508400008B50B210148024B2A
S2144009A0984708BD00100E40C508400008B50C2109
S2144009B00148024B984708BD00120E40C50840004B
S2144009C008B510210148024B984708BD00140E4058
S2144009D0C508400008B511210148024B984708BD9C
S2144009E000160E40C5084000032811D0042812D037
S2144009F002280CBF4FF480710021084A136B23F481
S214400A0040730B431363936E13F0080FFBD070478D
S214400A104FF44071F1E74FF40071EEE700060E40E8
S214400A20174A136B23F0700318431063936E13F04A
S214400A30080F0AD14FF4805311498A6E12F0080FFE
S214400A4003D1013BF9D1012070470D4A136B23F0C7
S214400A50030343F002031363936E13F0080F0AD1A7
S214400A604FF4805306498A6E12F0080F05D1013BB9
S214400A70F9D101207047002070470020704700BF22
S214400A8000060E40A0B90E48036A090289B20D4A14
S214400A901A400D4B1343194301620246936E13F0FE
S214400AA0010FFBD0064A116A084B0B43136270478E
S214400AB003490B6A064A1A40064B13430B627047BB
S214400AC000060E40FCFFC8FF01003700000037015B
S214400AD0FCFFC8FE02003701024B986E00F48030DF
S214400AE0704700BF00060E404FF00052014B9A621E
S214400AF0704700BF00060E40024B986E00F00200A2
S214400B00704700BF00060E403F281ED81F280CD84E
S214400B10114B9A6901238340934318D0012303FA6B
S214400B2000F00D4B18610020704720380A4BD3F870
S214400B3008210123834093430BD0012303FA00F09E
S214400B40054BC3F800010020704701207047002085
S214400B5070470020704700BF00060E40FEE70000CA
S214400B6000B583B0254B264A9A4210D0254B234ADF
S214400B709A420CD2013B9B1A23F0030304331344DE
S214400B801F4951F8040B42F8040B9A42F9D11E4B08
S214400B901E4A9A420AD2013B9B1A23F003030433AF
S214400BA01344002142F8041B9342FBD1184A194BC8
S214400BB023F07F039360EFF31083B3FA83F35B096C
S214400BC0019372B6BFF35F8F0022134B1A700199E0
S214400BD0124A136843F470031360BFF34F8FBFF39A
S214400BE06F8F29B101220C4B1A70BFF35F8F62B62C
S214400BF00B4B98470B4B9847FEE700BF0000402042
S214400C00B41440003C044020F80440203C044020FB
S214400C1000ED00E0000040000A00402088ED00E0C3
S214400C201D1340006D1140003B4B1B6B03F003034C
S214400C30012B1DD083B1022B36D0374B1B6B03F0F4
S214400C407003702B5FD0344B1A6B3449C2F30212D8
S214400C500B68D3400B607047314B5B6913F0800FD5
S214400C6014BF4FF400424FF4FA422C4B1A60E4E7AC
S214400C70294B1B6A13F0807F03D02A4A274B1A6001
S214400C80DBE7294A254B1A60234B1B6A03F07003A7
S214400C90102B05D0202BD0D1224A204B1A60CCE70F
S214400CA0224A1E4B1A60C8E71B4B1B6A13F0807F14
S214400CB016D01C4A194B1A60174B1B6B03F00303E4
S214400CC0022BBAD1144A916A926A1448C1F30A4177
S214400CD0036801FB0333D2B2B3FBF2F30360ACE725
S214400CE0114A0E4B1A600C4B1B6A03F07003102B14
S214400CF005D0202BE0D10B4A084B1A60DCE70B4AA4
S214400D00064B1A60D8E7054A13680949A1FB031346
S214400D105B081360704700BF00060E400C00402082
S214400D2010180E40001BB70000093D0000127A0064
S214400D30ABAAAAAA164B984213D9164B984215D975
S214400D40154B984216D9154B984217D9144B9842D2
S214400D5018D9144B984294BF134A144A144B1A603D
S214400D6070474FF08062124B1A607047114A104B22
S214400D701A607047104A0E4B1A6070470F4A0C4B69
S214400D801A6070474FF00422094B1A60704700BF44
S214400D90BFF35E017FE7BD023FDB1C04FFCE7B0551
S214400DA0BFC2DA067FB63908000500040006000414
S214400DB0000C0E4000010004000200040003000482
S214400DC00122014B1A707047D00440202DE9F041B3
S214400DD02DED028B82B0B0EE408A80460F46204C06
S214400DE0002120461F4B98479FED1F7AC7EE087A92
S214400DF0FDEEE77ACDED017ABDF8041020461B4B98
S214400E00984717F4803F16D1194B0822C3F8802024
S214400E10C3F88021802183F803131A6017F4403FFB
S214400E2019D14FF440310E48124B984702B0BDECF2
S214400E30028BBDE8F08120460F4B98470446084E8B
S214400E400D4D3046A8478442FBD004EB08010448C9
S214400E500A4B9847D8E739460148094B9847E5E793
S214400E6030180E40ED04400000000047D904400012
S214400E7000E100E02D0540004105400059054000D6
S214400E801905400038B50F480F4B984710F0020F31
S214400E9002D001220D4B1A700A4D042128460C4CF4
S214400EA0A04702212846A04701212846A0470821FE
S214400EB02846A04710212846A04720212846A0477C
S214400EC038BD00BF60180E40D1044000D104402019
S214400ED0D504400070B582B0044615461E46084606
S214400EE0054B984700230093324629462046034C3C
S214400EF0A04702B070BD00BF090B4000510840003B
S214400F0038B5044615460846064B984709222946F2
S214400F102046054B98473C2229462046034B984797
S214400F2038BD00BF090B40001B084000F9074000D1
S214400F3038B50D461C4611460C4B98476AB25009C8
S214400F40EDB205F01F0101238B40094941F82030DE
S214400F50002A04DB6401E4B2064B9C5438BD05F01D
S214400F600F056401E4B2044B5C5538BDB708400039
S214400F7000E100E000E400E014ED00E038B504468F
S214400F800D46064B984720B929462046044B9847BD
S214400F9038BD29462046034B984738BD790840005F
S214400FA0130840001708400000B583B001210548EB
S214400FB0054B9847019001210448054B984703B0DC
S214400FC05DF804FB00C00040CF054000000E0E4018
S214400FD07D0F400010B50C480C4B9847044610F067
S214400FE0010F03D114F0020F08D110BD4FF40031A9
S214400FF00020B5EE000A064B9847F3E74FF08041D5
S2144010000448054B9847F0E730180E405505400019
S214401010CD0D400000120E407D0F40002DE9F043FC
S21440102085B006460C461746984608461D4B9847D8
S2144010301D4D009502AB03AA29464046DFF8849032
S214401040C847029A42F4804239463046174B984782
S214401050039AB5FBF2F2B2FBF8F239463046144B2F
S214401060984763B2002B15DB0C9A5201D2B2114955
S214401070CA545B0904F01F04012202FA04F40E4A23
S21440108042F823401022394630460C4B984705B06C
S214401090BDE8F08304F00F000C9A5101C9B2084A2B
S2144010A01154E6E7090B400000A3E1119D054000FE
S2144010B0BF05400000E400E000E100E0C705400056
S2144010C014ED00E0D705400082B070B582B005460A
S2144010D00C4606A981E80C0002201D4B98470021CB
S2144010E028461C4B9847099B0093089B079A0699ED
S2144010F02846194EB0470C9B0B9A0A992846174E1D
S214401100B04762B2E4B204F01F0101238B40560997
S214401110134800EB8601C1F88030C1F88031002AC0
S2144011200FDB0F491144802281F8002340F8263017
S2144011300D9928460B4B984702B0BDE8704002B068
S214401140704704F00F04084A80211155EEE700BFAF
S214401150090B4000AD014000B903400021024000A9
S21440116000E100E0C301400014ED00E02DE9F04747
S21440117094B0504B9847504B984701231A460A2143
S2144011804E484F4CA04701234FF080420C214D481B
S214401190A047012304220B214B48A0474B4C4FF05D
S2144011A08052102120464A4B984704234FF08052E5
S2144011B010212046474DA847474B009350234FF0F9
S2144011C0805210212046454CA047454C04230093AE
S2144011D0012218212046434DA84701212046424B74
S2144011E098474FF400310020B5EE000A3F4B984731
S2144011F00DAE0023139340F2E6730D9303230E9334
S21440120011230F93142310932D231193202312930D
S214401210022705976C460FAD0FCD0FC40023236001
S21440122096E80C0039463248324CA047DFF8E4A036
S214401230DFF8BC80DFF8E0902F4F38E099F80030B8
S214401240002B26D12378002BF8D008AB07AA06A996
S2144012504046D0470CAB00930BAB0AAA09A94046C0
S214401260264DA8470B9B009301230A9A19464046F1
S214401270234DA847089B0533029301210191079B04
S21440128000930B46069A40461E4DA84700232370FF
S214401290D4E764240C4E1C4D04213046A8473846FB
S2144012A01A4B9847013CF7D1002389F80030184C78
S2144012B0C8E700BFB906400049064000000E0E4091
S2144012C0D50E400000120E4000100E4000140E4096
S2144012D0010F4000310F4000C10D4000150940008D
S2144012E000C000401D104000B7054000CD0D400036
S2144012F060180E40C9104000252B4D0045034000A5
S21440130071044000B10240007D0F400001004020C3
S214401310D0044020C7014000D104402070B50F4E95
S2144013200F4D761BB61018BF002405D0013455F873
S214401330043B9847A642F9D10A4E0B4D761B00F067
S214401340A7F8B61018BF002406D0013455F8043B61
S2144013509847A642F9D170BD70BD00BF9C144000AE
S2144013609C144000A41440009C144000024B13B14F
S214401370024800F005B87047000000008D1340009A
S214401380002301461A46184600F01EB838B50A4CE7
S2144013900A4D641BA4100AD004F18043013B05EBC0
S2144013A08305013C55F804399847002CF9D1BDE82F
S2144013B0384000F077B800BFB4144000B014400086
S2144013C0704700BF704700BF2DE9F8432C4D0646D6
S2144013D0286898460F469146FFF7F2FF294B1C684F
S2144013E0D4F84831002B3ED05A681F2A1CDC02F144
S2144013F0010E76B103EB82010124C1F88890D3F840
S214401400880194402043022EC3F88801C1F8088121
S21440141023D00232C3F804E0286843F82270FFF76E
S214401420D1FF0020BDE8F883174B0BB34FF4C870CC
S214401430AFF300800346D8B1D4F8482102600021BB
S21440144041600A46C4F848014FF0010EC0F88811C2
S214401450C0F88C11002EDCD0CCE7D3F88C110C43AE
S214401460C3F88C41D5E704F5A673C4F84831BBE70A
S2144014702868FFF7A7FF4FF0FF30BDE8F88300BFAE
S214401480380440208C14400000000000100040202B
S214401490F8B500BFF8BC08BC9E4670476D134000C8
S2144014A065014000F8B500BFF8BC08BC9E467047D2
S2084014B04101400071
S2144014B4BFF35F8F0138FBD17047010000093D0040
S2144014C400000000FC02402064034020CC0340207F
S2144014D400000000000000000000000000000000C3
S2144014E400000000000000000000000000000000B3
S2144014F400000000000000000000000000000000A3
S2144015040000000000000000000000000000000092
S2144015140000000000000000000000000000000082
S2144015240000000000000000000000000000000072
S2144015340000000000000000000000000000000062
S2144015440000000000000000000000000000000052
S2144015540000000000000000000000000000000042
S2144015640000000000000000010000000000000031
S2144015740E33CDAB34126DE6ECDE05000B000000F6
S2144015840000000000000000000000000000000012
S2144015940000000000000000000000000000000002
S2144015A400000000000000000000000000000000F2
S2144015B400000000000000000000000000000000E2
S2104018E40000000000000000D40440207B
S804400B614F
